{"abi":[{"type":"constructor","inputs":[{"name":"_uniswapV2Factory","type":"address","internalType":"address"},{"name":"_uniswapV3Factory","type":"address","internalType":"address"},{"name":"_weth","type":"address","internalType":"address"}],"stateMutability":"nonpayable"},{"type":"function","name":"getWethValueInPools","inputs":[{"name":"pools","type":"tuple[]","internalType":"struct WethValueInPools.PoolInfo[]","components":[{"name":"poolType","type":"uint8","internalType":"enum WethValueInPools.PoolType"},{"name":"poolAddress","type":"address","internalType":"address"}]}],"outputs":[{"name":"","type":"tuple[]","internalType":"struct WethValueInPools.PoolInfoReturn[]","components":[{"name":"poolType","type":"uint8","internalType":"enum WethValueInPools.PoolType"},{"name":"poolAddress","type":"address","internalType":"address"},{"name":"wethValue","type":"uint256","internalType":"uint256"}]}],"stateMutability":"nonpayable"}],"bytecode":{"object":"0x608060405234801561000f575f5ffd5b5060405161265238038061265283398181016040528101906100319190610156565b825f5f6101000a81548173ffffffffffffffffffffffffffffffffffffffff021916908373ffffffffffffffffffffffffffffffffffffffff1602179055508160015f6101000a81548173ffffffffffffffffffffffffffffffffffffffff021916908373ffffffffffffffffffffffffffffffffffffffff1602179055508060025f6101000a81548173ffffffffffffffffffffffffffffffffffffffff021916908373ffffffffffffffffffffffffffffffffffffffff1602179055505050506101a6565b5f5ffd5b5f73ffffffffffffffffffffffffffffffffffffffff82169050919050565b5f610125826100fc565b9050919050565b6101358161011b565b811461013f575f5ffd5b50565b5f815190506101508161012c565b92915050565b5f5f5f6060848603121561016d5761016c6100f8565b5b5f61017a86828701610142565b935050602061018b86828701610142565b925050604061019c86828701610142565b9150509250925092565b61249f806101b35f395ff3fe608060405234801561000f575f5ffd5b5060043610610029575f3560e01c8063339173fd1461002d575b5f5ffd5b61004760048036038101906100429190611a6f565b61005d565b6040516100549190611c38565b60405180910390f35b60605f825167ffffffffffffffff81111561007b5761007a611865565b5b6040519080825280602002602001820160405280156100b457816020015b6100a16117fa565b8152602001906001900390816100995790505b5090505f5f90505b83518110156102f4575f8482815181106100d9576100d8611c58565b5b602002602001015190505f60028111156100f6576100f5611adf565b5b815f0151600281111561010c5761010b611adf565b5b0361018f575f61011f82602001516102fe565b90506040518060600160405280835f0151600281111561014257610141611adf565b5b8152602001836020015173ffffffffffffffffffffffffffffffffffffffff1681526020018281525084848151811061017e5761017d611c58565b5b6020026020010181905250506102e6565b600160028111156101a3576101a2611adf565b5b815f015160028111156101b9576101b8611adf565b5b0361023c575f6101cc8260200151610587565b90506040518060600160405280835f015160028111156101ef576101ee611adf565b5b8152602001836020015173ffffffffffffffffffffffffffffffffffffffff1681526020018281525084848151811061022b5761022a611c58565b5b6020026020010181905250506102e5565b60028081111561024f5761024e611adf565b5b815f0151600281111561026557610264611adf565b5b036102e4575f6102788260200151610825565b90506040518060600160405280835f0151600281111561029b5761029a611adf565b5b8152602001836020015173ffffffffffffffffffffffffffffffffffffffff168152602001828152508484815181106102d7576102d6611c58565b5b6020026020010181905250505b5b5b5080806001019150506100bc565b5080915050919050565b5f60608273ffffffffffffffffffffffffffffffffffffffff1663cc77828d6040518163ffffffff1660e01b81526004015f604051808303815f875af192505050801561036d57506040513d5f823e3d601f19601f8201168201806040525081019061036a9190611d59565b60015b61037a575f915050610582565b809150505f5f90505b81518110156104ba5760025f9054906101000a900473ffffffffffffffffffffffffffffffffffffffff1673ffffffffffffffffffffffffffffffffffffffff168282815181106103d7576103d6611c58565b5b602002602001015173ffffffffffffffffffffffffffffffffffffffff16036104ad578373ffffffffffffffffffffffffffffffffffffffff1663f8b2cb4f83838151811061042957610428611c58565b5b60200260200101516040518263ffffffff1660e01b815260040161044d9190611daf565b6020604051808303815f875af192505050801561048857506040513d601f19601f820116820180604052508101906104859190611df2565b60015b610496575f92505050610582565b8251816104a39190611e4a565b9350505050610582565b8080600101915050610383565b505f815f815181106104cf576104ce611c58565b5b602002602001015190505f8473ffffffffffffffffffffffffffffffffffffffff1663f8b2cb4f836040518263ffffffff1660e01b81526004016105139190611daf565b6020604051808303815f875af192505050801561054e57506040513d601f19601f8201168201806040525081019061054b9190611df2565b60015b61055d575f9350505050610582565b809150505f61056c8383610b9a565b905083518161057b9190611e4a565b9450505050505b919050565b5f5f8273ffffffffffffffffffffffffffffffffffffffff16630dfe16816040518163ffffffff1660e01b8152600401602060405180830381865afa9250505080156105f157506040513d601f19601f820116820180604052508101906105ee9190611e8b565b60015b6105fe575f915050610820565b809150505f8373ffffffffffffffffffffffffffffffffffffffff1663d21220a76040518163ffffffff1660e01b8152600401602060405180830381865afa92505050801561066b57506040513d601f19601f820116820180604052508101906106689190611e8b565b60015b610679575f92505050610820565b809150508373ffffffffffffffffffffffffffffffffffffffff16630902f1ac6040518163ffffffff1660e01b8152600401606060405180830381865afa9250505080156106e557506040513d601f19601f820116820180604052508101906106e29190611f32565b60015b6106f3575f92505050610820565b60025f9054906101000a900473ffffffffffffffffffffffffffffffffffffffff1673ffffffffffffffffffffffffffffffffffffffff168573ffffffffffffffffffffffffffffffffffffffff1603610770576002836107549190611f82565b6dffffffffffffffffffffffffffff1695505050505050610820565b60025f9054906101000a900473ffffffffffffffffffffffffffffffffffffffff1673ffffffffffffffffffffffffffffffffffffffff168473ffffffffffffffffffffffffffffffffffffffff16036107ed576002826107d19190611f82565b6dffffffffffffffffffffffffffff1695505050505050610820565b5f61080886856dffffffffffffffffffffffffffff16610b9a565b90506002816108179190611e4a565b96505050505050505b919050565b5f5f8273ffffffffffffffffffffffffffffffffffffffff16630dfe16816040518163ffffffff1660e01b8152600401602060405180830381865afa92505050801561088f57506040513d601f19601f8201168201806040525081019061088c9190611e8b565b60015b61089c575f915050610b95565b809150505f8373ffffffffffffffffffffffffffffffffffffffff1663d21220a76040518163ffffffff1660e01b8152600401602060405180830381865afa92505050801561090957506040513d601f19601f820116820180604052508101906109069190611e8b565b60015b610917575f92505050610b95565b8091505060025f9054906101000a900473ffffffffffffffffffffffffffffffffffffffff1673ffffffffffffffffffffffffffffffffffffffff168273ffffffffffffffffffffffffffffffffffffffff1603610a07578173ffffffffffffffffffffffffffffffffffffffff166370a08231856040518263ffffffff1660e01b81526004016109a89190611daf565b602060405180830381865afa9250505080156109e257506040513d601f19601f820116820180604052508101906109df9190611df2565b60015b6109f0575f92505050610b95565b6002816109fd9190611e4a565b9350505050610b95565b60025f9054906101000a900473ffffffffffffffffffffffffffffffffffffffff1673ffffffffffffffffffffffffffffffffffffffff168173ffffffffffffffffffffffffffffffffffffffff1603610af3578073ffffffffffffffffffffffffffffffffffffffff166370a08231856040518263ffffffff1660e01b8152600401610a949190611daf565b602060405180830381865afa925050508015610ace57506040513d601f19601f82011682018060405250810190610acb9190611df2565b60015b610adc575f92505050610b95565b600281610ae99190611e4a565b9350505050610b95565b8173ffffffffffffffffffffffffffffffffffffffff166370a08231856040518263ffffffff1660e01b8152600401610b2c9190611daf565b602060405180830381865afa925050508015610b6657506040513d601f19601f82011682018060405250810190610b639190611df2565b60015b610b74575f92505050610b95565b5f610b7f8483610b9a565b9050600281610b8e9190611e4a565b9450505050505b919050565b5f5f610ba584610bf0565b90505f816fffffffffffffffffffffffffffffffff161115610bd357610bcb8184610c35565b915050610bea565b806fffffffffffffffffffffffffffffffff169150505b92915050565b5f5f610bfb83610d1f565b90505f816fffffffffffffffffffffffffffffffff161115610c205780915050610c30565b610c2983611070565b9050809150505b919050565b5f5f821480610c5557505f836fffffffffffffffffffffffffffffffff16145b15610c62575f9050610d19565b5f60406fffffffffffffffffffffffffffffffff8416856fffffffffffffffffffffffffffffffff1602901c90505f608084901c856fffffffffffffffffffffffffffffffff1602905077ffffffffffffffffffffffffffffffffffffffffffffffff811115610cd6575f92505050610d19565b604081901b9050817fffffffffffffffffffffffffffffffffffffffffffffffffffffffffffffffff03811115610d11575f92505050610d19565b818101925050505b92915050565b5f5f5f5f9054906101000a900473ffffffffffffffffffffffffffffffffffffffff1673ffffffffffffffffffffffffffffffffffffffff1663e6a439058460025f9054906101000a900473ffffffffffffffffffffffffffffffffffffffff166040518363ffffffff1660e01b8152600401610d9d929190611fbe565b602060405180830381865afa158015610db8573d5f5f3e3d5ffd5b505050506040513d601f19601f82011682018060405250810190610ddc9190611e8b565b90505f73ffffffffffffffffffffffffffffffffffffffff168173ffffffffffffffffffffffffffffffffffffffff1603610e1a575f91505061106b565b5f5f8273ffffffffffffffffffffffffffffffffffffffff16630902f1ac6040518163ffffffff1660e01b8152600401606060405180830381865afa925050508015610e8457506040513d601f19601f82011682018060405250810190610e819190611f32565b60015b610e93575f935050505061106b565b8294508193505050505f826dffffffffffffffffffffffffffff161480610ec957505f816dffffffffffffffffffffffffffff16145b15610ed9575f935050505061106b565b5f5f610ee48761133c565b9150915080610efa575f9550505050505061106b565b5f60025f9054906101000a900473ffffffffffffffffffffffffffffffffffffffff1673ffffffffffffffffffffffffffffffffffffffff168873ffffffffffffffffffffffffffffffffffffffff1610610f555784610f57565b835b90505f60025f9054906101000a900473ffffffffffffffffffffffffffffffffffffffff1673ffffffffffffffffffffffffffffffffffffffff168973ffffffffffffffffffffffffffffffffffffffff1610610fb45784610fb6565b855b9050601260ff168460ff16111561100057601284610fd49190611ff1565b600a610fe09190612154565b816dffffffffffffffffffffffffffff16610ffb91906121cb565b611035565b83601261100d9190611ff1565b600a6110199190612154565b816dffffffffffffffffffffffffffff166110349190611e4a565b5b9050611061826dffffffffffffffffffffffffffff16826dffffffffffffffffffffffffffff16611496565b9750505050505050505b919050565b5f5f60405180606001604052806101f461ffff168152602001610bb861ffff16815260200161271061ffff1681525090505f5f5f90505b60038110156111d0575f60015f9054906101000a900473ffffffffffffffffffffffffffffffffffffffff1673ffffffffffffffffffffffffffffffffffffffff16631698ee828760025f9054906101000a900473ffffffffffffffffffffffffffffffffffffffff1687866003811061112457611123611c58565b5b60200201516040518463ffffffff1660e01b81526004016111479392919061224f565b602060405180830381865afa158015611162573d5f5f3e3d5ffd5b505050506040513d601f19601f820116820180604052508101906111869190611e8b565b90505f73ffffffffffffffffffffffffffffffffffffffff168373ffffffffffffffffffffffffffffffffffffffff16146111c457809250506111d0565b508060010190506110a7565b505f73ffffffffffffffffffffffffffffffffffffffff168173ffffffffffffffffffffffffffffffffffffffff160361120e575f92505050611337565b5f8173ffffffffffffffffffffffffffffffffffffffff16633850c7bd6040518163ffffffff1660e01b815260040160c060405180830381865afa92505050801561127757506040513d601f19601f82011682018060405250810190611274919061234b565b60015b611286575f9350505050611337565b8596505050505050505f60025f9054906101000a900473ffffffffffffffffffffffffffffffffffffffff1673ffffffffffffffffffffffffffffffffffffffff168673ffffffffffffffffffffffffffffffffffffffff161090505f5f6112ed8861133c565b9150915080611304575f9650505050505050611337565b604061132c858586611317576012611319565b855b876113245786611327565b60125b611678565b901c96505050505050505b919050565b5f5f5f5f8473ffffffffffffffffffffffffffffffffffffffff16614e206040516024016040516020818303038152906040527f313ce567000000000000000000000000000000000000000000000000000000007bffffffffffffffffffffffffffffffffffffffffffffffffffffffff19166020820180517bffffffffffffffffffffffffffffffffffffffffffffffffffffffff83818316178352505050506040516113ea9190612426565b5f604051808303815f8787f1925050503d805f8114611424576040519150601f19603f3d011682016040523d82523d5f602084013e611429565b606091505b50915091508115611488575f602082510361147a57818060200190518101906114529190611df2565b905060ff81111561146b575f5f94509450505050611491565b80600194509450505050611491565b5f5f94509450505050611491565b5f5f9350935050505b915091565b5f5f82036114a6575f9050611672565b5f77ffffffffffffffffffffffffffffffffffffffffffffffff84116114e25782604085901b816114da576114d961219e565b5b04905061164c565b5f60c090505f60c086901c9050640100000000811061150957602081901c90506020820191505b62010000811061152157601081901c90506010820191505b610100811061153857600881901c90506008820191505b6010811061154e57600481901c90506004820191505b6004811061156457600281901c90506002820191505b60028110611573576001820191505b600160bf830360018703901c018260ff0387901b816115955761159461219e565b5b0492506fffffffffffffffffffffffffffffffff8311156115bb575f9350505050611672565b5f608086901c840290505f6fffffffffffffffffffffffffffffffff8716850290505f60c089901c90505f60408a901b9050828110156115fc576001820391505b8281039050608084901b925082811015611617576001820391505b8281039050608084901c82146116305761162f61243c565b5b8881816116405761163f61219e565b5b04870196505050505050505b6fffffffffffffffffffffffffffffffff81111561166d575f915050611672565b809150505b92915050565b5f5f82840390505f5f825f0b126116b0578160ff16600a0a60028873ffffffffffffffffffffffffffffffffffffffff160a026116e3565b815f0360ff16600a0a60028873ffffffffffffffffffffffffffffffffffffffff160a816116e1576116e061219e565b5b045b9050806c010000000000000000000000001115611704575f925050506117f2565b5f8661175c576c0100000000000000000000000082816117275761172661219e565b5b046fffffffffffffffffffffffffffffffff6c0100000000000000000000000002816117565761175561219e565b5b0461177b565b6c0100000000000000000000000082816117795761177861219e565b5b045b90508661178857806117b9565b6c010000000000000000000000006fffffffffffffffffffffffffffffffff8202816117b7576117b661219e565b5b045b93507fffffffffffffffffffffffffffffffffffffffffffffffffffffffffffffffff8411156117ee575f93505050506117f2565b5050505b949350505050565b60405180606001604052805f600281111561181857611817611adf565b5b81526020015f73ffffffffffffffffffffffffffffffffffffffff1681526020015f81525090565b5f604051905090565b5f5ffd5b5f5ffd5b5f5ffd5b5f601f19601f8301169050919050565b7f4e487b71000000000000000000000000000000000000000000000000000000005f52604160045260245ffd5b61189b82611855565b810181811067ffffffffffffffff821117156118ba576118b9611865565b5b80604052505050565b5f6118cc611840565b90506118d88282611892565b919050565b5f67ffffffffffffffff8211156118f7576118f6611865565b5b602082029050602081019050919050565b5f5ffd5b5f5ffd5b6003811061191c575f5ffd5b50565b5f8135905061192d81611910565b92915050565b5f73ffffffffffffffffffffffffffffffffffffffff82169050919050565b5f61195c82611933565b9050919050565b61196c81611952565b8114611976575f5ffd5b50565b5f8135905061198781611963565b92915050565b5f604082840312156119a2576119a161190c565b5b6119ac60406118c3565b90505f6119bb8482850161191f565b5f8301525060206119ce84828501611979565b60208301525092915050565b5f6119ec6119e7846118dd565b6118c3565b90508083825260208201905060408402830185811115611a0f57611a0e611908565b5b835b81811015611a385780611a24888261198d565b845260208401935050604081019050611a11565b5050509392505050565b5f82601f830112611a5657611a55611851565b5b8135611a668482602086016119da565b91505092915050565b5f60208284031215611a8457611a83611849565b5b5f82013567ffffffffffffffff811115611aa157611aa061184d565b5b611aad84828501611a42565b91505092915050565b5f81519050919050565b5f82825260208201905092915050565b5f819050602082019050919050565b7f4e487b71000000000000000000000000000000000000000000000000000000005f52602160045260245ffd5b60038110611b1d57611b1c611adf565b5b50565b5f819050611b2d82611b0c565b919050565b5f611b3c82611b20565b9050919050565b611b4c81611b32565b82525050565b611b5b81611952565b82525050565b5f819050919050565b611b7381611b61565b82525050565b606082015f820151611b8d5f850182611b43565b506020820151611ba06020850182611b52565b506040820151611bb36040850182611b6a565b50505050565b5f611bc48383611b79565b60608301905092915050565b5f602082019050919050565b5f611be682611ab6565b611bf08185611ac0565b9350611bfb83611ad0565b805f5b83811015611c2b578151611c128882611bb9565b9750611c1d83611bd0565b925050600181019050611bfe565b5085935050505092915050565b5f6020820190508181035f830152611c508184611bdc565b905092915050565b7f4e487b71000000000000000000000000000000000000000000000000000000005f52603260045260245ffd5b5f67ffffffffffffffff821115611c9f57611c9e611865565b5b602082029050602081019050919050565b5f81519050611cbe81611963565b92915050565b5f611cd6611cd184611c85565b6118c3565b90508083825260208201905060208402830185811115611cf957611cf8611908565b5b835b81811015611d225780611d0e8882611cb0565b845260208401935050602081019050611cfb565b5050509392505050565b5f82601f830112611d4057611d3f611851565b5b8151611d50848260208601611cc4565b91505092915050565b5f60208284031215611d6e57611d6d611849565b5b5f82015167ffffffffffffffff811115611d8b57611d8a61184d565b5b611d9784828501611d2c565b91505092915050565b611da981611952565b82525050565b5f602082019050611dc25f830184611da0565b92915050565b611dd181611b61565b8114611ddb575f5ffd5b50565b5f81519050611dec81611dc8565b92915050565b5f60208284031215611e0757611e06611849565b5b5f611e1484828501611dde565b91505092915050565b7f4e487b71000000000000000000000000000000000000000000000000000000005f52601160045260245ffd5b5f611e5482611b61565b9150611e5f83611b61565b9250828202611e6d81611b61565b91508282048414831517611e8457611e83611e1d565b5b5092915050565b5f60208284031215611ea057611e9f611849565b5b5f611ead84828501611cb0565b91505092915050565b5f6dffffffffffffffffffffffffffff82169050919050565b611ed881611eb6565b8114611ee2575f5ffd5b50565b5f81519050611ef381611ecf565b92915050565b5f63ffffffff82169050919050565b611f1181611ef9565b8114611f1b575f5ffd5b50565b5f81519050611f2c81611f08565b92915050565b5f5f5f60608486031215611f4957611f48611849565b5b5f611f5686828701611ee5565b9350506020611f6786828701611ee5565b9250506040611f7886828701611f1e565b9150509250925092565b5f611f8c82611eb6565b9150611f9783611eb6565b9250828202611fa581611eb6565b9150808214611fb757611fb6611e1d565b5b5092915050565b5f604082019050611fd15f830185611da0565b611fde6020830184611da0565b9392505050565b5f60ff82169050919050565b5f611ffb82611fe5565b915061200683611fe5565b9250828203905060ff81111561201f5761201e611e1d565b5b92915050565b5f8160011c9050919050565b5f5f8291508390505b600185111561207a5780860481111561205657612055611e1d565b5b60018516156120655780820291505b808102905061207385612025565b945061203a565b94509492505050565b5f82612092576001905061214d565b8161209f575f905061214d565b81600181146120b557600281146120bf576120ee565b600191505061214d565b60ff8411156120d1576120d0611e1d565b5b8360020a9150848211156120e8576120e7611e1d565b5b5061214d565b5060208310610133831016604e8410600b84101617156121235782820a90508381111561211e5761211d611e1d565b5b61214d565b6121308484846001612031565b9250905081840481111561214757612146611e1d565b5b81810290505b9392505050565b5f61215e82611b61565b915061216983611fe5565b92506121967fffffffffffffffffffffffffffffffffffffffffffffffffffffffffffffffff8484612083565b905092915050565b7f4e487b71000000000000000000000000000000000000000000000000000000005f52601260045260245ffd5b5f6121d582611b61565b91506121e083611b61565b9250826121f0576121ef61219e565b5b828204905092915050565b5f61ffff82169050919050565b5f62ffffff82169050919050565b5f819050919050565b5f61223961223461222f846121fb565b612216565b612208565b9050919050565b6122498161221f565b82525050565b5f6060820190506122625f830186611da0565b61226f6020830185611da0565b61227c6040830184612240565b949350505050565b61228d81611933565b8114612297575f5ffd5b50565b5f815190506122a881612284565b92915050565b5f8160020b9050919050565b6122c3816122ae565b81146122cd575f5ffd5b50565b5f815190506122de816122ba565b92915050565b6122ed816121fb565b81146122f7575f5ffd5b50565b5f81519050612308816122e4565b92915050565b5f67ffffffffffffffff82169050919050565b61232a8161230e565b8114612334575f5ffd5b50565b5f8151905061234581612321565b92915050565b5f5f5f5f5f5f60c0878903121561236557612364611849565b5b5f61237289828a0161229a565b965050602061238389828a016122d0565b955050604061239489828a016122fa565b94505060606123a589828a016122fa565b93505060806123b689828a016122fa565b92505060a06123c789828a01612337565b9150509295509295509295565b5f81519050919050565b5f81905092915050565b8281835e5f83830152505050565b5f612400826123d4565b61240a81856123de565b935061241a8185602086016123e8565b80840191505092915050565b5f61243182846123f6565b915081905092915050565b7f4e487b71000000000000000000000000000000000000000000000000000000005f52600160045260245ffdfea2646970667358221220eb447ea763b4faf014287fc6fcc0dc08f79ee1b416f2aa4d4ca15afc0b7f99eb64736f6c634300081e0033","linkReferences":{}},"methodIdentifiers":{"getWethValueInPools((uint8,address)[])":"339173fd"},"id":24}