{"abi":[{"type":"constructor","inputs":[{"name":"_uniswapV2Factory","type":"address","internalType":"address"},{"name":"_uniswapV3Factory","type":"address","internalType":"address"},{"name":"_weth","type":"address","internalType":"address"},{"name":"pools","type":"tuple[]","internalType":"struct WethValueInPools.PoolInfo[]","components":[{"name":"poolType","type":"uint8","internalType":"enum WethValueInPools.PoolType"},{"name":"poolAddress","type":"address","internalType":"address"}]}],"stateMutability":"nonpayable"},{"type":"function","name":"getWethValueInPools","inputs":[{"name":"pools","type":"tuple[]","internalType":"struct WethValueInPools.PoolInfo[]","components":[{"name":"poolType","type":"uint8","internalType":"enum WethValueInPools.PoolType"},{"name":"poolAddress","type":"address","internalType":"address"}]}],"outputs":[{"name":"","type":"tuple[]","internalType":"struct WethValueInPools.PoolInfoReturn[]","components":[{"name":"poolType","type":"uint8","internalType":"enum WethValueInPools.PoolType"},{"name":"poolAddress","type":"address","internalType":"address"},{"name":"wethValue","type":"uint256","internalType":"uint256"}]}],"stateMutability":"nonpayable"}],"bytecode":{"object":"0x608060405234801561000f575f5ffd5b506040516125c53803806125c583398181016040528101906100319190611ba5565b838383825f5f6101000a81548173ffffffffffffffffffffffffffffffffffffffff021916908373ffffffffffffffffffffffffffffffffffffffff1602179055508160015f6101000a81548173ffffffffffffffffffffffffffffffffffffffff021916908373ffffffffffffffffffffffffffffffffffffffff1602179055508060025f6101000a81548173ffffffffffffffffffffffffffffffffffffffff021916908373ffffffffffffffffffffffffffffffffffffffff1602179055505050505f6101068261013560201b60201c565b90505f8160405160200161011a9190611da7565b60405160208183030381529060405290506020810180590381f35b60605f825167ffffffffffffffff811115610153576101526119f5565b5b60405190808252806020026020018201604052801561018c57816020015b610179611930565b8152602001906001900390816101715790505b5090505f5f90505b83518110156103de575f8482815181106101b1576101b0611dc7565b5b602002602001015190505f60028111156101ce576101cd611c4e565b5b815f015160028111156101e4576101e3611c4e565b5b0361026d575f6101fd82602001516103e860201b60201c565b90506040518060600160405280835f015160028111156102205761021f611c4e565b5b8152602001836020015173ffffffffffffffffffffffffffffffffffffffff1681526020018281525084848151811061025c5761025b611dc7565b5b6020026020010181905250506103d0565b6001600281111561028157610280611c4e565b5b815f0151600281111561029757610296611c4e565b5b03610320575f6102b0826020015161067760201b60201c565b90506040518060600160405280835f015160028111156102d3576102d2611c4e565b5b8152602001836020015173ffffffffffffffffffffffffffffffffffffffff1681526020018281525084848151811061030f5761030e611dc7565b5b6020026020010181905250506103cf565b60028081111561033357610332611c4e565b5b815f0151600281111561034957610348611c4e565b5b036103ce575f610362826020015161091b60201b60201c565b90506040518060600160405280835f0151600281111561038557610384611c4e565b5b8152602001836020015173ffffffffffffffffffffffffffffffffffffffff168152602001828152508484815181106103c1576103c0611dc7565b5b6020026020010181905250505b5b5b508080600101915050610194565b5080915050919050565b5f60608273ffffffffffffffffffffffffffffffffffffffff1663cc77828d6040518163ffffffff1660e01b81526004015f604051808303815f875af192505050801561045757506040513d5f823e3d601f19601f820116820180604052508101906104549190611eb4565b60015b610464575f915050610672565b809150505f5f90505b81518110156105a45760025f9054906101000a900473ffffffffffffffffffffffffffffffffffffffff1673ffffffffffffffffffffffffffffffffffffffff168282815181106104c1576104c0611dc7565b5b602002602001015173ffffffffffffffffffffffffffffffffffffffff1603610597578373ffffffffffffffffffffffffffffffffffffffff1663f8b2cb4f83838151811061051357610512611dc7565b5b60200260200101516040518263ffffffff1660e01b81526004016105379190611f0a565b6020604051808303815f875af192505050801561057257506040513d601f19601f8201168201806040525081019061056f9190611f4d565b60015b610580575f92505050610672565b82518161058d9190611fa5565b9350505050610672565b808060010191505061046d565b505f815f815181106105b9576105b8611dc7565b5b602002602001015190505f8473ffffffffffffffffffffffffffffffffffffffff1663f8b2cb4f836040518263ffffffff1660e01b81526004016105fd9190611f0a565b6020604051808303815f875af192505050801561063857506040513d601f19601f820116820180604052508101906106359190611f4d565b60015b610647575f9350505050610672565b809150505f61065c8383610c9660201b60201c565b905083518161066b9190611fa5565b9450505050505b919050565b5f5f8273ffffffffffffffffffffffffffffffffffffffff16630dfe16816040518163ffffffff1660e01b8152600401602060405180830381865afa9250505080156106e157506040513d601f19601f820116820180604052508101906106de9190611fe6565b60015b6106ee575f915050610916565b809150505f8373ffffffffffffffffffffffffffffffffffffffff1663d21220a76040518163ffffffff1660e01b8152600401602060405180830381865afa92505050801561075b57506040513d601f19601f820116820180604052508101906107589190611fe6565b60015b610769575f92505050610916565b809150508373ffffffffffffffffffffffffffffffffffffffff16630902f1ac6040518163ffffffff1660e01b8152600401606060405180830381865afa9250505080156107d557506040513d601f19601f820116820180604052508101906107d2919061208d565b60015b6107e3575f92505050610916565b60025f9054906101000a900473ffffffffffffffffffffffffffffffffffffffff1673ffffffffffffffffffffffffffffffffffffffff168573ffffffffffffffffffffffffffffffffffffffff16036108605760028361084491906120dd565b6dffffffffffffffffffffffffffff1695505050505050610916565b60025f9054906101000a900473ffffffffffffffffffffffffffffffffffffffff1673ffffffffffffffffffffffffffffffffffffffff168473ffffffffffffffffffffffffffffffffffffffff16036108dd576002826108c191906120dd565b6dffffffffffffffffffffffffffff1695505050505050610916565b5f6108fe86856dffffffffffffffffffffffffffff16610c9660201b60201c565b905060028161090d9190611fa5565b96505050505050505b919050565b5f5f8273ffffffffffffffffffffffffffffffffffffffff16630dfe16816040518163ffffffff1660e01b8152600401602060405180830381865afa92505050801561098557506040513d601f19601f820116820180604052508101906109829190611fe6565b60015b610992575f915050610c91565b809150505f8373ffffffffffffffffffffffffffffffffffffffff1663d21220a76040518163ffffffff1660e01b8152600401602060405180830381865afa9250505080156109ff57506040513d601f19601f820116820180604052508101906109fc9190611fe6565b60015b610a0d575f92505050610c91565b8091505060025f9054906101000a900473ffffffffffffffffffffffffffffffffffffffff1673ffffffffffffffffffffffffffffffffffffffff168273ffffffffffffffffffffffffffffffffffffffff1603610afd578173ffffffffffffffffffffffffffffffffffffffff166370a08231856040518263ffffffff1660e01b8152600401610a9e9190611f0a565b602060405180830381865afa925050508015610ad857506040513d601f19601f82011682018060405250810190610ad59190611f4d565b60015b610ae6575f92505050610c91565b600281610af39190611fa5565b9350505050610c91565b60025f9054906101000a900473ffffffffffffffffffffffffffffffffffffffff1673ffffffffffffffffffffffffffffffffffffffff168173ffffffffffffffffffffffffffffffffffffffff1603610be9578073ffffffffffffffffffffffffffffffffffffffff166370a08231856040518263ffffffff1660e01b8152600401610b8a9190611f0a565b602060405180830381865afa925050508015610bc457506040513d601f19601f82011682018060405250810190610bc19190611f4d565b60015b610bd2575f92505050610c91565b600281610bdf9190611fa5565b9350505050610c91565b8173ffffffffffffffffffffffffffffffffffffffff166370a08231856040518263ffffffff1660e01b8152600401610c229190611f0a565b602060405180830381865afa925050508015610c5c57506040513d601f19601f82011682018060405250810190610c599190611f4d565b60015b610c6a575f92505050610c91565b5f610c7b8483610c9660201b60201c565b9050600281610c8a9190611fa5565b9450505050505b919050565b5f5f610ca784610cf860201b60201c565b90505f816fffffffffffffffffffffffffffffffff161115610cdb57610cd38184610d4960201b60201c565b915050610cf2565b806fffffffffffffffffffffffffffffffff169150505b92915050565b5f5f610d0983610e3360201b60201c565b90505f816fffffffffffffffffffffffffffffffff161115610d2e5780915050610d44565b610d3d8361119060201b60201c565b9050809150505b919050565b5f5f821480610d6957505f836fffffffffffffffffffffffffffffffff16145b15610d76575f9050610e2d565b5f60406fffffffffffffffffffffffffffffffff8416856fffffffffffffffffffffffffffffffff1602901c90505f608084901c856fffffffffffffffffffffffffffffffff1602905077ffffffffffffffffffffffffffffffffffffffffffffffff811115610dea575f92505050610e2d565b604081901b9050817fffffffffffffffffffffffffffffffffffffffffffffffffffffffffffffffff03811115610e25575f92505050610e2d565b818101925050505b92915050565b5f5f5f5f9054906101000a900473ffffffffffffffffffffffffffffffffffffffff1673ffffffffffffffffffffffffffffffffffffffff1663e6a439058460025f9054906101000a900473ffffffffffffffffffffffffffffffffffffffff166040518363ffffffff1660e01b8152600401610eb1929190612119565b602060405180830381865afa158015610ecc573d5f5f3e3d5ffd5b505050506040513d601f19601f82011682018060405250810190610ef09190611fe6565b90505f73ffffffffffffffffffffffffffffffffffffffff168173ffffffffffffffffffffffffffffffffffffffff1603610f2e575f91505061118b565b5f5f8273ffffffffffffffffffffffffffffffffffffffff16630902f1ac6040518163ffffffff1660e01b8152600401606060405180830381865afa925050508015610f9857506040513d601f19601f82011682018060405250810190610f95919061208d565b60015b610fa7575f935050505061118b565b8294508193505050505f826dffffffffffffffffffffffffffff161480610fdd57505f816dffffffffffffffffffffffffffff16145b15610fed575f935050505061118b565b5f5f610ffe8761146860201b60201c565b9150915080611014575f9550505050505061118b565b5f60025f9054906101000a900473ffffffffffffffffffffffffffffffffffffffff1673ffffffffffffffffffffffffffffffffffffffff168873ffffffffffffffffffffffffffffffffffffffff161061106f5784611071565b835b90505f60025f9054906101000a900473ffffffffffffffffffffffffffffffffffffffff1673ffffffffffffffffffffffffffffffffffffffff168973ffffffffffffffffffffffffffffffffffffffff16106110ce57846110d0565b855b9050601260ff168460ff16111561111a576012846110ee919061214c565b600a6110fa91906122af565b816dffffffffffffffffffffffffffff166111159190612326565b61114f565b836012611127919061214c565b600a61113391906122af565b816dffffffffffffffffffffffffffff1661114e9190611fa5565b5b9050611181826dffffffffffffffffffffffffffff16826dffffffffffffffffffffffffffff166115cc60201b60201c565b9750505050505050505b919050565b5f5f60405180606001604052806101f461ffff168152602001610bb861ffff16815260200161271061ffff1681525090505f5f5f90505b60038110156112f0575f60015f9054906101000a900473ffffffffffffffffffffffffffffffffffffffff1673ffffffffffffffffffffffffffffffffffffffff16631698ee828760025f9054906101000a900473ffffffffffffffffffffffffffffffffffffffff1687866003811061124457611243611dc7565b5b60200201516040518463ffffffff1660e01b8152600401611267939291906123aa565b602060405180830381865afa158015611282573d5f5f3e3d5ffd5b505050506040513d601f19601f820116820180604052508101906112a69190611fe6565b90505f73ffffffffffffffffffffffffffffffffffffffff168373ffffffffffffffffffffffffffffffffffffffff16146112e457809250506112f0565b508060010190506111c7565b505f73ffffffffffffffffffffffffffffffffffffffff168173ffffffffffffffffffffffffffffffffffffffff160361132e575f92505050611463565b5f8173ffffffffffffffffffffffffffffffffffffffff16633850c7bd6040518163ffffffff1660e01b815260040160c060405180830381865afa92505050801561139757506040513d601f19601f8201168201806040525081019061139491906124a6565b60015b6113a6575f9350505050611463565b8596505050505050505f60025f9054906101000a900473ffffffffffffffffffffffffffffffffffffffff1673ffffffffffffffffffffffffffffffffffffffff168673ffffffffffffffffffffffffffffffffffffffff161090505f5f6114138861146860201b60201c565b915091508061142a575f9650505050505050611463565b604061145885858661143d57601261143f565b855b8761144a578661144d565b60125b6117ae60201b60201c565b901c96505050505050505b919050565b5f5f5f5f8473ffffffffffffffffffffffffffffffffffffffff16614e206040516024016040516020818303038152906040527f313ce567000000000000000000000000000000000000000000000000000000007bffffffffffffffffffffffffffffffffffffffffffffffffffffffff19166020820180517bffffffffffffffffffffffffffffffffffffffffffffffffffffffff83818316178352505050506040516115169190612581565b5f604051808303815f8787f1925050503d805f8114611550576040519150601f19603f3d011682016040523d82523d5f602084013e611555565b606091505b509150915081156115be575f60208251036115b0578180602001905181019061157e9190611f4d565b90505f81148061158e575060ff81115b156115a1575f5f945094505050506115c7565b806001945094505050506115c7565b5f5f945094505050506115c7565b5f5f9350935050505b915091565b5f5f82036115dc575f90506117a8565b5f77ffffffffffffffffffffffffffffffffffffffffffffffff84116116185782604085901b816116105761160f6122f9565b5b049050611782565b5f60c090505f60c086901c9050640100000000811061163f57602081901c90506020820191505b62010000811061165757601081901c90506010820191505b610100811061166e57600881901c90506008820191505b6010811061168457600481901c90506004820191505b6004811061169a57600281901c90506002820191505b600281106116a9576001820191505b600160bf830360018703901c018260ff0387901b816116cb576116ca6122f9565b5b0492506fffffffffffffffffffffffffffffffff8311156116f1575f93505050506117a8565b5f608086901c840290505f6fffffffffffffffffffffffffffffffff8716850290505f60c089901c90505f60408a901b905082811015611732576001820391505b8281039050608084901b92508281101561174d576001820391505b8281039050608084901c821461176657611765612597565b5b888181611776576117756122f9565b5b04870196505050505050505b6fffffffffffffffffffffffffffffffff8111156117a3575f9150506117a8565b809150505b92915050565b5f5f82840390505f5f825f0b126117e6578160ff16600a0a60028873ffffffffffffffffffffffffffffffffffffffff160a02611819565b815f0360ff16600a0a60028873ffffffffffffffffffffffffffffffffffffffff160a81611817576118166122f9565b5b045b9050806c01000000000000000000000000111561183a575f92505050611928565b5f86611892576c01000000000000000000000000828161185d5761185c6122f9565b5b046fffffffffffffffffffffffffffffffff6c01000000000000000000000000028161188c5761188b6122f9565b5b046118b1565b6c0100000000000000000000000082816118af576118ae6122f9565b5b045b9050866118be57806118ef565b6c010000000000000000000000006fffffffffffffffffffffffffffffffff8202816118ed576118ec6122f9565b5b045b93507fffffffffffffffffffffffffffffffffffffffffffffffffffffffffffffffff841115611924575f9350505050611928565b5050505b949350505050565b60405180606001604052805f600281111561194e5761194d611c4e565b5b81526020015f73ffffffffffffffffffffffffffffffffffffffff1681526020015f81525090565b5f604051905090565b5f5ffd5b5f5ffd5b5f73ffffffffffffffffffffffffffffffffffffffff82169050919050565b5f6119b082611987565b9050919050565b6119c0816119a6565b81146119ca575f5ffd5b50565b5f815190506119db816119b7565b92915050565b5f5ffd5b5f601f19601f8301169050919050565b7f4e487b71000000000000000000000000000000000000000000000000000000005f52604160045260245ffd5b611a2b826119e5565b810181811067ffffffffffffffff82111715611a4a57611a496119f5565b5b80604052505050565b5f611a5c611976565b9050611a688282611a22565b919050565b5f67ffffffffffffffff821115611a8757611a866119f5565b5b602082029050602081019050919050565b5f5ffd5b5f5ffd5b60038110611aac575f5ffd5b50565b5f81519050611abd81611aa0565b92915050565b5f60408284031215611ad857611ad7611a9c565b5b611ae26040611a53565b90505f611af184828501611aaf565b5f830152506020611b04848285016119cd565b60208301525092915050565b5f611b22611b1d84611a6d565b611a53565b90508083825260208201905060408402830185811115611b4557611b44611a98565b5b835b81811015611b6e5780611b5a8882611ac3565b845260208401935050604081019050611b47565b5050509392505050565b5f82601f830112611b8c57611b8b6119e1565b5b8151611b9c848260208601611b10565b91505092915050565b5f5f5f5f60808587031215611bbd57611bbc61197f565b5b5f611bca878288016119cd565b9450506020611bdb878288016119cd565b9350506040611bec878288016119cd565b925050606085015167ffffffffffffffff811115611c0d57611c0c611983565b5b611c1987828801611b78565b91505092959194509250565b5f81519050919050565b5f82825260208201905092915050565b5f819050602082019050919050565b7f4e487b71000000000000000000000000000000000000000000000000000000005f52602160045260245ffd5b60038110611c8c57611c8b611c4e565b5b50565b5f819050611c9c82611c7b565b919050565b5f611cab82611c8f565b9050919050565b611cbb81611ca1565b82525050565b611cca816119a6565b82525050565b5f819050919050565b611ce281611cd0565b82525050565b606082015f820151611cfc5f850182611cb2565b506020820151611d0f6020850182611cc1565b506040820151611d226040850182611cd9565b50505050565b5f611d338383611ce8565b60608301905092915050565b5f602082019050919050565b5f611d5582611c25565b611d5f8185611c2f565b9350611d6a83611c3f565b805f5b83811015611d9a578151611d818882611d28565b9750611d8c83611d3f565b925050600181019050611d6d565b5085935050505092915050565b5f6020820190508181035f830152611dbf8184611d4b565b905092915050565b7f4e487b71000000000000000000000000000000000000000000000000000000005f52603260045260245ffd5b5f67ffffffffffffffff821115611e0e57611e0d6119f5565b5b602082029050602081019050919050565b5f611e31611e2c84611df4565b611a53565b90508083825260208201905060208402830185811115611e5457611e53611a98565b5b835b81811015611e7d5780611e6988826119cd565b845260208401935050602081019050611e56565b5050509392505050565b5f82601f830112611e9b57611e9a6119e1565b5b8151611eab848260208601611e1f565b91505092915050565b5f60208284031215611ec957611ec861197f565b5b5f82015167ffffffffffffffff811115611ee657611ee5611983565b5b611ef284828501611e87565b91505092915050565b611f04816119a6565b82525050565b5f602082019050611f1d5f830184611efb565b92915050565b611f2c81611cd0565b8114611f36575f5ffd5b50565b5f81519050611f4781611f23565b92915050565b5f60208284031215611f6257611f6161197f565b5b5f611f6f84828501611f39565b91505092915050565b7f4e487b71000000000000000000000000000000000000000000000000000000005f52601160045260245ffd5b5f611faf82611cd0565b9150611fba83611cd0565b9250828202611fc881611cd0565b91508282048414831517611fdf57611fde611f78565b5b5092915050565b5f60208284031215611ffb57611ffa61197f565b5b5f612008848285016119cd565b91505092915050565b5f6dffffffffffffffffffffffffffff82169050919050565b61203381612011565b811461203d575f5ffd5b50565b5f8151905061204e8161202a565b92915050565b5f63ffffffff82169050919050565b61206c81612054565b8114612076575f5ffd5b50565b5f8151905061208781612063565b92915050565b5f5f5f606084860312156120a4576120a361197f565b5b5f6120b186828701612040565b93505060206120c286828701612040565b92505060406120d386828701612079565b9150509250925092565b5f6120e782612011565b91506120f283612011565b925082820261210081612011565b915080821461211257612111611f78565b5b5092915050565b5f60408201905061212c5f830185611efb565b6121396020830184611efb565b9392505050565b5f60ff82169050919050565b5f61215682612140565b915061216183612140565b9250828203905060ff81111561217a57612179611f78565b5b92915050565b5f8160011c9050919050565b5f5f8291508390505b60018511156121d5578086048111156121b1576121b0611f78565b5b60018516156121c05780820291505b80810290506121ce85612180565b9450612195565b94509492505050565b5f826121ed57600190506122a8565b816121fa575f90506122a8565b8160018114612210576002811461221a57612249565b60019150506122a8565b60ff84111561222c5761222b611f78565b5b8360020a91508482111561224357612242611f78565b5b506122a8565b5060208310610133831016604e8410600b841016171561227e5782820a90508381111561227957612278611f78565b5b6122a8565b61228b848484600161218c565b925090508184048111156122a2576122a1611f78565b5b81810290505b9392505050565b5f6122b982611cd0565b91506122c483612140565b92506122f17fffffffffffffffffffffffffffffffffffffffffffffffffffffffffffffffff84846121de565b905092915050565b7f4e487b71000000000000000000000000000000000000000000000000000000005f52601260045260245ffd5b5f61233082611cd0565b915061233b83611cd0565b92508261234b5761234a6122f9565b5b828204905092915050565b5f61ffff82169050919050565b5f62ffffff82169050919050565b5f819050919050565b5f61239461238f61238a84612356565b612371565b612363565b9050919050565b6123a48161237a565b82525050565b5f6060820190506123bd5f830186611efb565b6123ca6020830185611efb565b6123d7604083018461239b565b949350505050565b6123e881611987565b81146123f2575f5ffd5b50565b5f81519050612403816123df565b92915050565b5f8160020b9050919050565b61241e81612409565b8114612428575f5ffd5b50565b5f8151905061243981612415565b92915050565b61244881612356565b8114612452575f5ffd5b50565b5f815190506124638161243f565b92915050565b5f67ffffffffffffffff82169050919050565b61248581612469565b811461248f575f5ffd5b50565b5f815190506124a08161247c565b92915050565b5f5f5f5f5f5f60c087890312156124c0576124bf61197f565b5b5f6124cd89828a016123f5565b96505060206124de89828a0161242b565b95505060406124ef89828a01612455565b945050606061250089828a01612455565b935050608061251189828a01612455565b92505060a061252289828a01612492565b9150509295509295509295565b5f81519050919050565b5f81905092915050565b8281835e5f83830152505050565b5f61255b8261252f565b6125658185612539565b9350612575818560208601612543565b80840191505092915050565b5f61258c8284612551565b915081905092915050565b7f4e487b71000000000000000000000000000000000000000000000000000000005f52600160045260245ffdfe","linkReferences":{}},"deployedBytecode":{"object":"0x608060405234801561000f575f5ffd5b5060043610610029575f3560e01c8063339173fd1461002d575b5f5ffd5b61004760048036038101906100429190611a79565b61005d565b6040516100549190611c42565b60405180910390f35b60605f825167ffffffffffffffff81111561007b5761007a61186f565b5b6040519080825280602002602001820160405280156100b457816020015b6100a1611804565b8152602001906001900390816100995790505b5090505f5f90505b83518110156102f4575f8482815181106100d9576100d8611c62565b5b602002602001015190505f60028111156100f6576100f5611ae9565b5b815f0151600281111561010c5761010b611ae9565b5b0361018f575f61011f82602001516102fe565b90506040518060600160405280835f0151600281111561014257610141611ae9565b5b8152602001836020015173ffffffffffffffffffffffffffffffffffffffff1681526020018281525084848151811061017e5761017d611c62565b5b6020026020010181905250506102e6565b600160028111156101a3576101a2611ae9565b5b815f015160028111156101b9576101b8611ae9565b5b0361023c575f6101cc8260200151610587565b90506040518060600160405280835f015160028111156101ef576101ee611ae9565b5b8152602001836020015173ffffffffffffffffffffffffffffffffffffffff1681526020018281525084848151811061022b5761022a611c62565b5b6020026020010181905250506102e5565b60028081111561024f5761024e611ae9565b5b815f0151600281111561026557610264611ae9565b5b036102e4575f6102788260200151610825565b90506040518060600160405280835f0151600281111561029b5761029a611ae9565b5b8152602001836020015173ffffffffffffffffffffffffffffffffffffffff168152602001828152508484815181106102d7576102d6611c62565b5b6020026020010181905250505b5b5b5080806001019150506100bc565b5080915050919050565b5f60608273ffffffffffffffffffffffffffffffffffffffff1663cc77828d6040518163ffffffff1660e01b81526004015f604051808303815f875af192505050801561036d57506040513d5f823e3d601f19601f8201168201806040525081019061036a9190611d63565b60015b61037a575f915050610582565b809150505f5f90505b81518110156104ba5760025f9054906101000a900473ffffffffffffffffffffffffffffffffffffffff1673ffffffffffffffffffffffffffffffffffffffff168282815181106103d7576103d6611c62565b5b602002602001015173ffffffffffffffffffffffffffffffffffffffff16036104ad578373ffffffffffffffffffffffffffffffffffffffff1663f8b2cb4f83838151811061042957610428611c62565b5b60200260200101516040518263ffffffff1660e01b815260040161044d9190611db9565b6020604051808303815f875af192505050801561048857506040513d601f19601f820116820180604052508101906104859190611dfc565b60015b610496575f92505050610582565b8251816104a39190611e54565b9350505050610582565b8080600101915050610383565b505f815f815181106104cf576104ce611c62565b5b602002602001015190505f8473ffffffffffffffffffffffffffffffffffffffff1663f8b2cb4f836040518263ffffffff1660e01b81526004016105139190611db9565b6020604051808303815f875af192505050801561054e57506040513d601f19601f8201168201806040525081019061054b9190611dfc565b60015b61055d575f9350505050610582565b809150505f61056c8383610b9a565b905083518161057b9190611e54565b9450505050505b919050565b5f5f8273ffffffffffffffffffffffffffffffffffffffff16630dfe16816040518163ffffffff1660e01b8152600401602060405180830381865afa9250505080156105f157506040513d601f19601f820116820180604052508101906105ee9190611e95565b60015b6105fe575f915050610820565b809150505f8373ffffffffffffffffffffffffffffffffffffffff1663d21220a76040518163ffffffff1660e01b8152600401602060405180830381865afa92505050801561066b57506040513d601f19601f820116820180604052508101906106689190611e95565b60015b610679575f92505050610820565b809150508373ffffffffffffffffffffffffffffffffffffffff16630902f1ac6040518163ffffffff1660e01b8152600401606060405180830381865afa9250505080156106e557506040513d601f19601f820116820180604052508101906106e29190611f3c565b60015b6106f3575f92505050610820565b60025f9054906101000a900473ffffffffffffffffffffffffffffffffffffffff1673ffffffffffffffffffffffffffffffffffffffff168573ffffffffffffffffffffffffffffffffffffffff1603610770576002836107549190611f8c565b6dffffffffffffffffffffffffffff1695505050505050610820565b60025f9054906101000a900473ffffffffffffffffffffffffffffffffffffffff1673ffffffffffffffffffffffffffffffffffffffff168473ffffffffffffffffffffffffffffffffffffffff16036107ed576002826107d19190611f8c565b6dffffffffffffffffffffffffffff1695505050505050610820565b5f61080886856dffffffffffffffffffffffffffff16610b9a565b90506002816108179190611e54565b96505050505050505b919050565b5f5f8273ffffffffffffffffffffffffffffffffffffffff16630dfe16816040518163ffffffff1660e01b8152600401602060405180830381865afa92505050801561088f57506040513d601f19601f8201168201806040525081019061088c9190611e95565b60015b61089c575f915050610b95565b809150505f8373ffffffffffffffffffffffffffffffffffffffff1663d21220a76040518163ffffffff1660e01b8152600401602060405180830381865afa92505050801561090957506040513d601f19601f820116820180604052508101906109069190611e95565b60015b610917575f92505050610b95565b8091505060025f9054906101000a900473ffffffffffffffffffffffffffffffffffffffff1673ffffffffffffffffffffffffffffffffffffffff168273ffffffffffffffffffffffffffffffffffffffff1603610a07578173ffffffffffffffffffffffffffffffffffffffff166370a08231856040518263ffffffff1660e01b81526004016109a89190611db9565b602060405180830381865afa9250505080156109e257506040513d601f19601f820116820180604052508101906109df9190611dfc565b60015b6109f0575f92505050610b95565b6002816109fd9190611e54565b9350505050610b95565b60025f9054906101000a900473ffffffffffffffffffffffffffffffffffffffff1673ffffffffffffffffffffffffffffffffffffffff168173ffffffffffffffffffffffffffffffffffffffff1603610af3578073ffffffffffffffffffffffffffffffffffffffff166370a08231856040518263ffffffff1660e01b8152600401610a949190611db9565b602060405180830381865afa925050508015610ace57506040513d601f19601f82011682018060405250810190610acb9190611dfc565b60015b610adc575f92505050610b95565b600281610ae99190611e54565b9350505050610b95565b8173ffffffffffffffffffffffffffffffffffffffff166370a08231856040518263ffffffff1660e01b8152600401610b2c9190611db9565b602060405180830381865afa925050508015610b6657506040513d601f19601f82011682018060405250810190610b639190611dfc565b60015b610b74575f92505050610b95565b5f610b7f8483610b9a565b9050600281610b8e9190611e54565b9450505050505b919050565b5f5f610ba584610bf0565b90505f816fffffffffffffffffffffffffffffffff161115610bd357610bcb8184610c35565b915050610bea565b806fffffffffffffffffffffffffffffffff169150505b92915050565b5f5f610bfb83610d1f565b90505f816fffffffffffffffffffffffffffffffff161115610c205780915050610c30565b610c2983611070565b9050809150505b919050565b5f5f821480610c5557505f836fffffffffffffffffffffffffffffffff16145b15610c62575f9050610d19565b5f60406fffffffffffffffffffffffffffffffff8416856fffffffffffffffffffffffffffffffff1602901c90505f608084901c856fffffffffffffffffffffffffffffffff1602905077ffffffffffffffffffffffffffffffffffffffffffffffff811115610cd6575f92505050610d19565b604081901b9050817fffffffffffffffffffffffffffffffffffffffffffffffffffffffffffffffff03811115610d11575f92505050610d19565b818101925050505b92915050565b5f5f5f5f9054906101000a900473ffffffffffffffffffffffffffffffffffffffff1673ffffffffffffffffffffffffffffffffffffffff1663e6a439058460025f9054906101000a900473ffffffffffffffffffffffffffffffffffffffff166040518363ffffffff1660e01b8152600401610d9d929190611fc8565b602060405180830381865afa158015610db8573d5f5f3e3d5ffd5b505050506040513d601f19601f82011682018060405250810190610ddc9190611e95565b90505f73ffffffffffffffffffffffffffffffffffffffff168173ffffffffffffffffffffffffffffffffffffffff1603610e1a575f91505061106b565b5f5f8273ffffffffffffffffffffffffffffffffffffffff16630902f1ac6040518163ffffffff1660e01b8152600401606060405180830381865afa925050508015610e8457506040513d601f19601f82011682018060405250810190610e819190611f3c565b60015b610e93575f935050505061106b565b8294508193505050505f826dffffffffffffffffffffffffffff161480610ec957505f816dffffffffffffffffffffffffffff16145b15610ed9575f935050505061106b565b5f5f610ee48761133c565b9150915080610efa575f9550505050505061106b565b5f60025f9054906101000a900473ffffffffffffffffffffffffffffffffffffffff1673ffffffffffffffffffffffffffffffffffffffff168873ffffffffffffffffffffffffffffffffffffffff1610610f555784610f57565b835b90505f60025f9054906101000a900473ffffffffffffffffffffffffffffffffffffffff1673ffffffffffffffffffffffffffffffffffffffff168973ffffffffffffffffffffffffffffffffffffffff1610610fb45784610fb6565b855b9050601260ff168460ff16111561100057601284610fd49190611ffb565b600a610fe0919061215e565b816dffffffffffffffffffffffffffff16610ffb91906121d5565b611035565b83601261100d9190611ffb565b600a611019919061215e565b816dffffffffffffffffffffffffffff166110349190611e54565b5b9050611061826dffffffffffffffffffffffffffff16826dffffffffffffffffffffffffffff166114a0565b9750505050505050505b919050565b5f5f60405180606001604052806101f461ffff168152602001610bb861ffff16815260200161271061ffff1681525090505f5f5f90505b60038110156111d0575f60015f9054906101000a900473ffffffffffffffffffffffffffffffffffffffff1673ffffffffffffffffffffffffffffffffffffffff16631698ee828760025f9054906101000a900473ffffffffffffffffffffffffffffffffffffffff1687866003811061112457611123611c62565b5b60200201516040518463ffffffff1660e01b815260040161114793929190612259565b602060405180830381865afa158015611162573d5f5f3e3d5ffd5b505050506040513d601f19601f820116820180604052508101906111869190611e95565b90505f73ffffffffffffffffffffffffffffffffffffffff168373ffffffffffffffffffffffffffffffffffffffff16146111c457809250506111d0565b508060010190506110a7565b505f73ffffffffffffffffffffffffffffffffffffffff168173ffffffffffffffffffffffffffffffffffffffff160361120e575f92505050611337565b5f8173ffffffffffffffffffffffffffffffffffffffff16633850c7bd6040518163ffffffff1660e01b815260040160c060405180830381865afa92505050801561127757506040513d601f19601f820116820180604052508101906112749190612355565b60015b611286575f9350505050611337565b8596505050505050505f60025f9054906101000a900473ffffffffffffffffffffffffffffffffffffffff1673ffffffffffffffffffffffffffffffffffffffff168673ffffffffffffffffffffffffffffffffffffffff161090505f5f6112ed8861133c565b9150915080611304575f9650505050505050611337565b604061132c858586611317576012611319565b855b876113245786611327565b60125b611682565b901c96505050505050505b919050565b5f5f5f5f8473ffffffffffffffffffffffffffffffffffffffff16614e206040516024016040516020818303038152906040527f313ce567000000000000000000000000000000000000000000000000000000007bffffffffffffffffffffffffffffffffffffffffffffffffffffffff19166020820180517bffffffffffffffffffffffffffffffffffffffffffffffffffffffff83818316178352505050506040516113ea9190612430565b5f604051808303815f8787f1925050503d805f8114611424576040519150601f19603f3d011682016040523d82523d5f602084013e611429565b606091505b50915091508115611492575f602082510361148457818060200190518101906114529190611dfc565b90505f811480611462575060ff81115b15611475575f5f9450945050505061149b565b8060019450945050505061149b565b5f5f9450945050505061149b565b5f5f9350935050505b915091565b5f5f82036114b0575f905061167c565b5f77ffffffffffffffffffffffffffffffffffffffffffffffff84116114ec5782604085901b816114e4576114e36121a8565b5b049050611656565b5f60c090505f60c086901c9050640100000000811061151357602081901c90506020820191505b62010000811061152b57601081901c90506010820191505b610100811061154257600881901c90506008820191505b6010811061155857600481901c90506004820191505b6004811061156e57600281901c90506002820191505b6002811061157d576001820191505b600160bf830360018703901c018260ff0387901b8161159f5761159e6121a8565b5b0492506fffffffffffffffffffffffffffffffff8311156115c5575f935050505061167c565b5f608086901c840290505f6fffffffffffffffffffffffffffffffff8716850290505f60c089901c90505f60408a901b905082811015611606576001820391505b8281039050608084901b925082811015611621576001820391505b8281039050608084901c821461163a57611639612446565b5b88818161164a576116496121a8565b5b04870196505050505050505b6fffffffffffffffffffffffffffffffff811115611677575f91505061167c565b809150505b92915050565b5f5f82840390505f5f825f0b126116ba578160ff16600a0a60028873ffffffffffffffffffffffffffffffffffffffff160a026116ed565b815f0360ff16600a0a60028873ffffffffffffffffffffffffffffffffffffffff160a816116eb576116ea6121a8565b5b045b9050806c01000000000000000000000000111561170e575f925050506117fc565b5f86611766576c010000000000000000000000008281611731576117306121a8565b5b046fffffffffffffffffffffffffffffffff6c0100000000000000000000000002816117605761175f6121a8565b5b04611785565b6c010000000000000000000000008281611783576117826121a8565b5b045b90508661179257806117c3565b6c010000000000000000000000006fffffffffffffffffffffffffffffffff8202816117c1576117c06121a8565b5b045b93507fffffffffffffffffffffffffffffffffffffffffffffffffffffffffffffffff8411156117f8575f93505050506117fc565b5050505b949350505050565b60405180606001604052805f600281111561182257611821611ae9565b5b81526020015f73ffffffffffffffffffffffffffffffffffffffff1681526020015f81525090565b5f604051905090565b5f5ffd5b5f5ffd5b5f5ffd5b5f601f19601f8301169050919050565b7f4e487b71000000000000000000000000000000000000000000000000000000005f52604160045260245ffd5b6118a58261185f565b810181811067ffffffffffffffff821117156118c4576118c361186f565b5b80604052505050565b5f6118d661184a565b90506118e2828261189c565b919050565b5f67ffffffffffffffff8211156119015761190061186f565b5b602082029050602081019050919050565b5f5ffd5b5f5ffd5b60038110611926575f5ffd5b50565b5f813590506119378161191a565b92915050565b5f73ffffffffffffffffffffffffffffffffffffffff82169050919050565b5f6119668261193d565b9050919050565b6119768161195c565b8114611980575f5ffd5b50565b5f813590506119918161196d565b92915050565b5f604082840312156119ac576119ab611916565b5b6119b660406118cd565b90505f6119c584828501611929565b5f8301525060206119d884828501611983565b60208301525092915050565b5f6119f66119f1846118e7565b6118cd565b90508083825260208201905060408402830185811115611a1957611a18611912565b5b835b81811015611a425780611a2e8882611997565b845260208401935050604081019050611a1b565b5050509392505050565b5f82601f830112611a6057611a5f61185b565b5b8135611a708482602086016119e4565b91505092915050565b5f60208284031215611a8e57611a8d611853565b5b5f82013567ffffffffffffffff811115611aab57611aaa611857565b5b611ab784828501611a4c565b91505092915050565b5f81519050919050565b5f82825260208201905092915050565b5f819050602082019050919050565b7f4e487b71000000000000000000000000000000000000000000000000000000005f52602160045260245ffd5b60038110611b2757611b26611ae9565b5b50565b5f819050611b3782611b16565b919050565b5f611b4682611b2a565b9050919050565b611b5681611b3c565b82525050565b611b658161195c565b82525050565b5f819050919050565b611b7d81611b6b565b82525050565b606082015f820151611b975f850182611b4d565b506020820151611baa6020850182611b5c565b506040820151611bbd6040850182611b74565b50505050565b5f611bce8383611b83565b60608301905092915050565b5f602082019050919050565b5f611bf082611ac0565b611bfa8185611aca565b9350611c0583611ada565b805f5b83811015611c35578151611c1c8882611bc3565b9750611c2783611bda565b925050600181019050611c08565b5085935050505092915050565b5f6020820190508181035f830152611c5a8184611be6565b905092915050565b7f4e487b71000000000000000000000000000000000000000000000000000000005f52603260045260245ffd5b5f67ffffffffffffffff821115611ca957611ca861186f565b5b602082029050602081019050919050565b5f81519050611cc88161196d565b92915050565b5f611ce0611cdb84611c8f565b6118cd565b90508083825260208201905060208402830185811115611d0357611d02611912565b5b835b81811015611d2c5780611d188882611cba565b845260208401935050602081019050611d05565b5050509392505050565b5f82601f830112611d4a57611d4961185b565b5b8151611d5a848260208601611cce565b91505092915050565b5f60208284031215611d7857611d77611853565b5b5f82015167ffffffffffffffff811115611d9557611d94611857565b5b611da184828501611d36565b91505092915050565b611db38161195c565b82525050565b5f602082019050611dcc5f830184611daa565b92915050565b611ddb81611b6b565b8114611de5575f5ffd5b50565b5f81519050611df681611dd2565b92915050565b5f60208284031215611e1157611e10611853565b5b5f611e1e84828501611de8565b91505092915050565b7f4e487b71000000000000000000000000000000000000000000000000000000005f52601160045260245ffd5b5f611e5e82611b6b565b9150611e6983611b6b565b9250828202611e7781611b6b565b91508282048414831517611e8e57611e8d611e27565b5b5092915050565b5f60208284031215611eaa57611ea9611853565b5b5f611eb784828501611cba565b91505092915050565b5f6dffffffffffffffffffffffffffff82169050919050565b611ee281611ec0565b8114611eec575f5ffd5b50565b5f81519050611efd81611ed9565b92915050565b5f63ffffffff82169050919050565b611f1b81611f03565b8114611f25575f5ffd5b50565b5f81519050611f3681611f12565b92915050565b5f5f5f60608486031215611f5357611f52611853565b5b5f611f6086828701611eef565b9350506020611f7186828701611eef565b9250506040611f8286828701611f28565b9150509250925092565b5f611f9682611ec0565b9150611fa183611ec0565b9250828202611faf81611ec0565b9150808214611fc157611fc0611e27565b5b5092915050565b5f604082019050611fdb5f830185611daa565b611fe86020830184611daa565b9392505050565b5f60ff82169050919050565b5f61200582611fef565b915061201083611fef565b9250828203905060ff81111561202957612028611e27565b5b92915050565b5f8160011c9050919050565b5f5f8291508390505b6001851115612084578086048111156120605761205f611e27565b5b600185161561206f5780820291505b808102905061207d8561202f565b9450612044565b94509492505050565b5f8261209c5760019050612157565b816120a9575f9050612157565b81600181146120bf57600281146120c9576120f8565b6001915050612157565b60ff8411156120db576120da611e27565b5b8360020a9150848211156120f2576120f1611e27565b5b50612157565b5060208310610133831016604e8410600b841016171561212d5782820a90508381111561212857612127611e27565b5b612157565b61213a848484600161203b565b9250905081840481111561215157612150611e27565b5b81810290505b9392505050565b5f61216882611b6b565b915061217383611fef565b92506121a07fffffffffffffffffffffffffffffffffffffffffffffffffffffffffffffffff848461208d565b905092915050565b7f4e487b71000000000000000000000000000000000000000000000000000000005f52601260045260245ffd5b5f6121df82611b6b565b91506121ea83611b6b565b9250826121fa576121f96121a8565b5b828204905092915050565b5f61ffff82169050919050565b5f62ffffff82169050919050565b5f819050919050565b5f61224361223e61223984612205565b612220565b612212565b9050919050565b61225381612229565b82525050565b5f60608201905061226c5f830186611daa565b6122796020830185611daa565b612286604083018461224a565b949350505050565b6122978161193d565b81146122a1575f5ffd5b50565b5f815190506122b28161228e565b92915050565b5f8160020b9050919050565b6122cd816122b8565b81146122d7575f5ffd5b50565b5f815190506122e8816122c4565b92915050565b6122f781612205565b8114612301575f5ffd5b50565b5f81519050612312816122ee565b92915050565b5f67ffffffffffffffff82169050919050565b61233481612318565b811461233e575f5ffd5b50565b5f8151905061234f8161232b565b92915050565b5f5f5f5f5f5f60c0878903121561236f5761236e611853565b5b5f61237c89828a016122a4565b965050602061238d89828a016122da565b955050604061239e89828a01612304565b94505060606123af89828a01612304565b93505060806123c089828a01612304565b92505060a06123d189828a01612341565b9150509295509295509295565b5f81519050919050565b5f81905092915050565b8281835e5f83830152505050565b5f61240a826123de565b61241481856123e8565b93506124248185602086016123f2565b80840191505092915050565b5f61243b8284612400565b915081905092915050565b7f4e487b71000000000000000000000000000000000000000000000000000000005f52600160045260245ffdfea26469706673582212200a9921edaa8606718bdfecc43669615f4b8fa39e94af5252be6cd328037b311964736f6c634300081e0033","linkReferences":{}},"methodIdentifiers":{"getWethValueInPools((uint8,address)[])":"339173fd"},"id":38}